{
  "contractName": "PublicArticle",
  "abi": [
    {
      "constant": true,
      "inputs": [],
      "name": "owner",
      "outputs": [
        {
          "name": "",
          "type": "address"
        }
      ],
      "payable": false,
      "stateMutability": "view",
      "type": "function"
    },
    {
      "constant": true,
      "inputs": [],
      "name": "expires",
      "outputs": [
        {
          "name": "",
          "type": "uint256"
        }
      ],
      "payable": false,
      "stateMutability": "view",
      "type": "function"
    },
    {
      "constant": false,
      "inputs": [
        {
          "name": "_articleName",
          "type": "string"
        }
      ],
      "name": "setArticleName",
      "outputs": [],
      "payable": false,
      "stateMutability": "nonpayable",
      "type": "function"
    },
    {
      "constant": false,
      "inputs": [
        {
          "name": "_articleText",
          "type": "string"
        }
      ],
      "name": "setArticleText",
      "outputs": [],
      "payable": false,
      "stateMutability": "nonpayable",
      "type": "function"
    },
    {
      "constant": false,
      "inputs": [
        {
          "name": "_duration",
          "type": "uint256"
        }
      ],
      "name": "setDuration",
      "outputs": [],
      "payable": false,
      "stateMutability": "nonpayable",
      "type": "function"
    },
    {
      "constant": true,
      "inputs": [],
      "name": "getArticleName",
      "outputs": [
        {
          "name": "",
          "type": "string"
        }
      ],
      "payable": false,
      "stateMutability": "view",
      "type": "function"
    },
    {
      "constant": true,
      "inputs": [],
      "name": "getArticleText",
      "outputs": [
        {
          "name": "",
          "type": "string"
        }
      ],
      "payable": false,
      "stateMutability": "view",
      "type": "function"
    }
  ],
  "bytecode": "0x608060405233600360006101000a81548173ffffffffffffffffffffffffffffffffffffffff021916908373ffffffffffffffffffffffffffffffffffffffff16021790555034801561005157600080fd5b506108d6806100616000396000f3fe608060405234801561001057600080fd5b506004361061007d5760003560e01c8063b1cb0db31161005b578063b1cb0db3146101d2578063b2ae64d3146101f0578063bfd240cc146102ab578063f6be71d1146103665761007d565b806339093c9c1461008257806362940a14146101055780638da5cb5b14610188575b600080fd5b61008a610394565b6040518080602001828103825283818151815260200191508051906020019080838360005b838110156100ca5780820151818401526020810190506100af565b50505050905090810190601f1680156100f75780820380516001836020036101000a031916815260200191505b509250505060405180910390f35b61010d6104ae565b6040518080602001828103825283818151815260200191508051906020019080838360005b8381101561014d578082015181840152602081019050610132565b50505050905090810190601f16801561017a5780820380516001836020036101000a031916815260200191505b509250505060405180910390f35b610190610550565b604051808273ffffffffffffffffffffffffffffffffffffffff1673ffffffffffffffffffffffffffffffffffffffff16815260200191505060405180910390f35b6101da610576565b6040518082815260200191505060405180910390f35b6102a96004803603602081101561020657600080fd5b810190808035906020019064010000000081111561022357600080fd5b82018360208201111561023557600080fd5b8035906020019184600183028401116401000000008311171561025757600080fd5b91908080601f016020809104026020016040519081016040528093929190818152602001838380828437600081840152601f19601f82011690508083019250505050505050919291929050505061057c565b005b610364600480360360208110156102c157600080fd5b81019080803590602001906401000000008111156102de57600080fd5b8201836020820111156102f057600080fd5b8035906020019184600183028401116401000000008311171561031257600080fd5b91908080601f016020809104026020016040519081016040528093929190818152602001838380828437600081840152601f19601f820116905080830192505050505050509192919290505050610659565b005b6103926004803603602081101561037c57600080fd5b8101908080359060200190929190505050610736565b005b606060025442111561040e576040517f08c379a00000000000000000000000000000000000000000000000000000000081526004018080602001828103825260108152602001807f74696d652068617320657870697265640000000000000000000000000000000081525060200191505060405180910390fd5b60018054600181600116156101000203166002900480601f0160208091040260200160405190810160405280929190818152602001828054600181600116156101000203166002900480156104a45780601f10610479576101008083540402835291602001916104a4565b820191906000526020600020905b81548152906001019060200180831161048757829003601f168201915b5050505050905090565b606060008054600181600116156101000203166002900480601f0160208091040260200160405190810160405280929190818152602001828054600181600116156101000203166002900480156105465780601f1061051b57610100808354040283529160200191610546565b820191906000526020600020905b81548152906001019060200180831161052957829003601f168201915b5050505050905090565b600360009054906101000a900473ffffffffffffffffffffffffffffffffffffffff1681565b60025481565b600360009054906101000a900473ffffffffffffffffffffffffffffffffffffffff1673ffffffffffffffffffffffffffffffffffffffff163373ffffffffffffffffffffffffffffffffffffffff161461063f576040517f08c379a00000000000000000000000000000000000000000000000000000000081526004018080602001828103825260158152602001807f796f75206d75737420626520746865206f776e6572000000000000000000000081525060200191505060405180910390fd5b8060019080519060200190610655929190610805565b5050565b600360009054906101000a900473ffffffffffffffffffffffffffffffffffffffff1673ffffffffffffffffffffffffffffffffffffffff163373ffffffffffffffffffffffffffffffffffffffff161461071c576040517f08c379a00000000000000000000000000000000000000000000000000000000081526004018080602001828103825260158152602001807f796f75206d75737420626520746865206f776e6572000000000000000000000081525060200191505060405180910390fd5b8060009080519060200190610732929190610805565b5050565b600360009054906101000a900473ffffffffffffffffffffffffffffffffffffffff1673ffffffffffffffffffffffffffffffffffffffff163373ffffffffffffffffffffffffffffffffffffffff16146107f9576040517f08c379a00000000000000000000000000000000000000000000000000000000081526004018080602001828103825260158152602001807f796f75206d75737420626520746865206f776e6572000000000000000000000081525060200191505060405180910390fd5b80420160028190555050565b828054600181600116156101000203166002900490600052602060002090601f016020900481019282601f1061084657805160ff1916838001178555610874565b82800160010185558215610874579182015b82811115610873578251825591602001919060010190610858565b5b5090506108819190610885565b5090565b6108a791905b808211156108a357600081600090555060010161088b565b5090565b9056fea165627a7a7230582072d576c8906245ad6a4b05c9aebb96d77c410cd9c32fb88ecf86d8de547f14960029",
  "source": "pragma solidity ^0.5.1;\n\ncontract PublicArticle {\n    string private articleName;\n    string private articleText;\n\n    uint public expires;\n    address public owner = msg.sender;\n\n    modifier onlyOwner() {\n        require(msg.sender == owner,\"you must be the owner\");\n        _;\n    }\n\n    modifier limitedTime() {\n        require(now <= expires, \"time has expired\");\n        _;\n    }\n\n    function setArticleName(string memory _articleName) public onlyOwner {\n        articleName = _articleName;\n    }\n\n    function setArticleText(string memory _articleText) public onlyOwner {\n        articleText = _articleText; \n    }\n\n    function setDuration(uint _duration) public onlyOwner {\n        expires = now + _duration; \n    }\n\n    function getArticleName() view public returns (string memory) {\n       return articleName; \n    }\n\n    function getArticleText() view public limitedTime returns (string memory) {\n        return articleText;\n    }\n}",
  "sourcePath": "/Users/denisputnam/git/mi4-exercise3/contracts/PublicArticle.sol",
  "compiler": {
    "name": "solc",
    "version": "0.5.8+commit.23d335f2.Emscripten.clang"
  },
  "schemaVersion": "3.0.11",
  "updatedAt": "2020-02-26T21:19:59.584Z",
  "devdoc": {
    "methods": {}
  },
  "userdoc": {
    "methods": {}
  }
}